{
  "address": "0x59b61751F6bE24192ab604e69f91F03A5E52219d",
  "abi": [
    {
      "inputs": [
        {
          "internalType": "contract ISwapRouter",
          "name": "_swapRouter",
          "type": "address"
        },
        {
          "internalType": "address",
          "name": "_wethAddress",
          "type": "address"
        }
      ],
      "stateMutability": "nonpayable",
      "type": "constructor"
    },
    {
      "anonymous": false,
      "inputs": [
        {
          "indexed": true,
          "internalType": "address",
          "name": "previousOwner",
          "type": "address"
        },
        {
          "indexed": true,
          "internalType": "address",
          "name": "newOwner",
          "type": "address"
        }
      ],
      "name": "OwnershipTransferred",
      "type": "event"
    },
    {
      "inputs": [],
      "name": "WETH9",
      "outputs": [
        {
          "internalType": "address",
          "name": "",
          "type": "address"
        }
      ],
      "stateMutability": "view",
      "type": "function"
    },
    {
      "inputs": [
        {
          "internalType": "bool",
          "name": "_disable",
          "type": "bool"
        }
      ],
      "name": "disableSwapper",
      "outputs": [],
      "stateMutability": "nonpayable",
      "type": "function"
    },
    {
      "inputs": [],
      "name": "isDisabled",
      "outputs": [
        {
          "internalType": "bool",
          "name": "",
          "type": "bool"
        }
      ],
      "stateMutability": "view",
      "type": "function"
    },
    {
      "inputs": [],
      "name": "owner",
      "outputs": [
        {
          "internalType": "address",
          "name": "",
          "type": "address"
        }
      ],
      "stateMutability": "view",
      "type": "function"
    },
    {
      "inputs": [],
      "name": "poolFee",
      "outputs": [
        {
          "internalType": "uint24",
          "name": "",
          "type": "uint24"
        }
      ],
      "stateMutability": "view",
      "type": "function"
    },
    {
      "inputs": [],
      "name": "renounceOwnership",
      "outputs": [],
      "stateMutability": "nonpayable",
      "type": "function"
    },
    {
      "inputs": [
        {
          "internalType": "address",
          "name": "token",
          "type": "address"
        },
        {
          "internalType": "uint256",
          "name": "minAmount",
          "type": "uint256"
        }
      ],
      "name": "swapEtherToToken",
      "outputs": [
        {
          "internalType": "uint256",
          "name": "amountOut",
          "type": "uint256"
        }
      ],
      "stateMutability": "payable",
      "type": "function"
    },
    {
      "inputs": [],
      "name": "swapRouter",
      "outputs": [
        {
          "internalType": "contract ISwapRouter",
          "name": "",
          "type": "address"
        }
      ],
      "stateMutability": "view",
      "type": "function"
    },
    {
      "inputs": [
        {
          "internalType": "address",
          "name": "newOwner",
          "type": "address"
        }
      ],
      "name": "transferOwnership",
      "outputs": [],
      "stateMutability": "nonpayable",
      "type": "function"
    }
  ],
  "numDeployments": 1,
  "solcInputHash": "82eae7e68dd1f8d833f3a2dc3c14d161",
  "bytecode": "0x60c060405234801561001057600080fd5b5060405161093138038061093183398101604081905261002f916100b2565b60006100396100ae565b600080546001600160a01b0319166001600160a01b0383169081178255604051929350917f8be0079c531659141344cd1fd0a4f28419497f9722a3daafe3b4186f6b6457e0908290a3506000805460ff60a01b191690556001600160601b0319606092831b811660a052911b16608052610103565b3390565b600080604083850312156100c4578182fd5b82516100cf816100eb565b60208401519092506100e0816100eb565b809150509250929050565b6001600160a01b038116811461010057600080fd5b50565b60805160601c60a05160601c6107fb610136600039806103cd5280610472525080610193528061036b52506107fb6000f3fe6080604052600436106100765760003560e01c8063089fe6aa1461007b5780634aa4a4fc146100a657806368872cce146100c85780636c57f5a9146100ea578063715018a61461010c5780637a2a0456146101215780638da5cb5b14610141578063c31c9c0714610156578063f2fde38b1461016b575b600080fd5b34801561008757600080fd5b5061009061018b565b60405161009d9190610766565b60405180910390f35b3480156100b257600080fd5b506100bb610191565b60405161009d9190610638565b3480156100d457600080fd5b506100e86100e3366004610600565b6101b5565b005b3480156100f657600080fd5b506100ff61026f565b60405161009d919061064c565b34801561011857600080fd5b506100e861027f565b61013461012f3660046105d7565b61032b565b60405161009d9190610776565b34801561014d57600080fd5b506100bb610461565b34801561016257600080fd5b506100bb610470565b34801561017757600080fd5b506100e86101863660046105b6565b610494565b610bb881565b7f000000000000000000000000000000000000000000000000000000000000000081565b6101bd610596565b6001600160a01b03166101ce610461565b6001600160a01b031614610217576040805162461bcd60e51b815260206004820181905260248201526000805160206107a6833981519152604482015290519081900360640190fd5b60005460ff600160a01b90910416151581151514156102515760405162461bcd60e51b8152600401610248906106ab565b60405180910390fd5b60008054911515600160a01b0260ff60a01b19909216919091179055565b600054600160a01b900460ff1681565b610287610596565b6001600160a01b0316610298610461565b6001600160a01b0316146102e1576040805162461bcd60e51b815260206004820181905260248201526000805160206107a6833981519152604482015290519081900360640190fd5b600080546040516001600160a01b03909116907f8be0079c531659141344cd1fd0a4f28419497f9722a3daafe3b4186f6b6457e0908390a3600080546001600160a01b0319169055565b60008054600160a01b900460ff16156103565760405162461bcd60e51b815260040161024890610657565b60408051610100810182526001600160a01b037f0000000000000000000000000000000000000000000000000000000000000000811682528581166020830152610bb8828401523360608301524260808301523460a0830181905260c08301869052600060e0840152925163414bf38960e01b81527f00000000000000000000000000000000000000000000000000000000000000009091169063414bf3899084906104069085906004016106fd565b6020604051808303818588803b15801561041f57600080fd5b505af1158015610433573d6000803e3d6000fd5b50505050506040513d601f19601f820116820180604052508101906104589190610620565b95945050505050565b6000546001600160a01b031690565b7f000000000000000000000000000000000000000000000000000000000000000081565b61049c610596565b6001600160a01b03166104ad610461565b6001600160a01b0316146104f6576040805162461bcd60e51b815260206004820181905260248201526000805160206107a6833981519152604482015290519081900360640190fd5b6001600160a01b03811661053b5760405162461bcd60e51b81526004018080602001828103825260268152602001806107806026913960400191505060405180910390fd5b600080546040516001600160a01b03808516939216917f8be0079c531659141344cd1fd0a4f28419497f9722a3daafe3b4186f6b6457e091a3600080546001600160a01b0319166001600160a01b0392909216919091179055565b3390565b80356001600160a01b03811681146105b157600080fd5b919050565b6000602082840312156105c7578081fd5b6105d08261059a565b9392505050565b600080604083850312156105e9578081fd5b6105f28361059a565b946020939093013593505050565b600060208284031215610611578081fd5b813580151581146105d0578182fd5b600060208284031215610631578081fd5b5051919050565b6001600160a01b0391909116815260200190565b901515815260200190565b60208082526034908201527f556e697377617056334552433230537761707065723a2053776170706572206360408201527337b73a3930b1ba1034b9903234b9b0b13632b21760611b606082015260800190565b60208082526032908201527f556e697377617056334552433230537761707065723a2044697361626c6520736040820152713a30ba3ab99030b63932b0b23c9039b2ba1760711b606082015260800190565b81516001600160a01b03908116825260208084015182169083015260408084015162ffffff16908301526060808401518216908301526080808401519083015260a0838101519083015260c0808401519083015260e09283015116918101919091526101000190565b62ffffff91909116815260200190565b9081526020019056fe4f776e61626c653a206e6577206f776e657220697320746865207a65726f20616464726573734f776e61626c653a2063616c6c6572206973206e6f7420746865206f776e6572a2646970667358221220a3f7f6a73fb0f489a461cbf72b28a44f4b819f5fef94533626c613a20892de8d64736f6c63430007060033",
  "devdoc": {
    "kind": "dev",
    "methods": {
      "owner()": {
        "details": "Returns the address of the current owner."
      },
      "renounceOwnership()": {
        "details": "Leaves the contract without owner. It will not be possible to call `onlyOwner` functions anymore. Can only be called by the current owner. NOTE: Renouncing ownership will leave the contract without an owner, thereby removing any functionality that is only available to the owner."
      },
      "swapEtherToToken(address,uint256)": {
        "details": "swaps the `msg.value` Ether to at least `minAmount` of tokens in `address`, or reverts",
        "params": {
          "minAmount": "The minimum amount of tokens transferred to msg.sender",
          "token": "The address of ERC-20 token to swap"
        }
      },
      "transferOwnership(address)": {
        "details": "Transfers ownership of the contract to a new account (`newOwner`). Can only be called by the current owner."
      }
    },
    "version": 1
  },
  "userdoc": {
    "kind": "user",
    "methods": {},
    "version": 1
  },
  "storageLayout": {
    "storage": [
      {
        "astId": 53,
        "contract": "contracts/UniswapV3ERC20Swapper.sol:UniswapV3ERC20Swapper",
        "label": "_owner",
        "offset": 0,
        "slot": "0",
        "type": "t_address"
      },
      {
        "astId": 585,
        "contract": "contracts/UniswapV3ERC20Swapper.sol:UniswapV3ERC20Swapper",
        "label": "isDisabled",
        "offset": 20,
        "slot": "0",
        "type": "t_bool"
      }
    ],
    "types": {
      "t_address": {
        "encoding": "inplace",
        "label": "address",
        "numberOfBytes": "20"
      },
      "t_bool": {
        "encoding": "inplace",
        "label": "bool",
        "numberOfBytes": "1"
      }
    }
  }
}